:020000040800F2
:100000001825002031020008EB270008DF1F000838
:10001000E9270008DF080008893D0008000000000B
:10002000000000000000000000000000990100082E
:10003000E108000800000000DD010008693C00083C
:100040004B0200084B0200084B0200084B0200085C
:100050004B0200084B0200084B0200084B0200084C
:100060004B0200084B0200084B0200084B0200083C
:100070004B0200084B0200084B0200084B0200082C
:100080004B0200084B0200084B0200084B0200081C
:100090004B0200084B0200084B0200084B0200080C
:1000A0004B0200084B0200084B0200084B020008FC
:1000B0004B0200084B020008053D00084B020008F7
:1000C0004B0200084B0200084B0200084B020008DC
:1000D0004B0200084B0200084B0200084B020008CC
:1000E0004B0200084B0200084B02000800F002F827
:1000F00000F042F80AA090E8000C82448344AAF180
:100100000107DA4501D100F037F8AFF2090EBAE87D
:100110000F0013F0010F18BFFB1A43F0010318473B
:100120005078000070780000103A24BF78C878C179
:10013000FAD8520724BF30C830C144BF04680C60ED
:10014000704700000023002400250026103A28BF35
:1001500078C1FBD8520728BF30C148BF0B60704739
:10016000642900F0EB80732900F059830020704768
:100170001FB51FBD10B510BD00F07CFB1146FFF789
:10018000F7FF03F061FF00F09AFB03B4FFF7F2FF03
:1001900003BC00F09DFB0000224B19680868B0E822
:1001A000F00F80F30988BFF36F8F4FF0000080F3EA
:1001B00011884EF00D0E70470000000006480068E0
:1001C000006880F3088862B661B6BFF34F8FBFF353
:1001D0006F8F00DF00BF00BF08ED00E0EFF3098084
:1001E000BFF36F8F0F4B1A6820E9F00F106008B54E
:1001F0004FF0500080F31188BFF34F8FBFF36F8F24
:1002000004F0E8FD4FF0000080F31188BDE80840DD
:1002100019680868B0E8F00F80F30988BFF36F8FA2
:10022000704700BF5C000020EFF3058070470000BE
:100230000948804709480047FEE7FEE7FEE7FEE77A
:10024000FEE7FEE7FEE7FEE7FEE7FEE704480549B6
:10025000054A064B70470000033D0008ED0000080A
:10026000181F002018250020182100201821002028
:100270000FB41CB5084B06AA7B446946009005984C
:1002800000F0A3FA04460020694600F0B1FA2046C7
:100290001CBC5DF814FB00007505000070B5044639
:1002A00085690068C10601D5302600E02026C00718
:1002B00007D070BDD4E9012130469047206A401C28
:1002C00020626D1EF6D570BD70B504468569007854
:1002D000C00707D170BDD4E9012120209047206AD2
:1002E000401C20626D1EF6D570BD70B50C460546EB
:1002F000012A05D02878800600D5EA69002302E0AB
:10030000012305E05B1C934202D2E05C0028F9D196
:10031000A869E618C01AA861286A18442862284605
:10032000FFF7BCFF04E0D5E9012114F8010B904769
:10033000B442F8D32846FFF7C7FF70BD2DE9F0415E
:100340000646002410687529314616A510D0AFF373
:100350000080002802DA404213A507E031688A07CE
:1003600001D512A502E0490704D511A5012401E039
:10037000AFF3008000210A2206F1240709E0B0FB58
:10038000F2FCB0FBF2F302FB1C003030785418464C
:10039000491C0028F3D123462A463046BDE8F041E7
:1003A00000F0B5B9000000002D0000002B00000097
:1003B000200000002DE9F05F894604464FF0000A56
:1003C000DFF874B1FB44C0F820A02046E1688847FC
:1003D000002874D0252806D0D4E901219047206A4E
:1003E000401C2062F1E700265F462046E16888470E
:1003F0002028054607DB312D05D2781910F8200C8E
:1004000008B10643F1E7B00701D526F00406C4F8A9
:100410001CA00027C4F818A02A2D09D0284603F0F4
:10042000DEFC38B304EB8708303DC8F8185019E0FB
:1004300059F8041B204604EB87029161E168884764
:10044000012F054618D1E069002820DA26F02006A1
:100450001DE0D8F8180000EB800005EB40003038B4
:10046000C8F818002046E1688847054603F0B7FC45
:100470000028EED1012F0AD02E2D08D12046E168A8
:1004800088477F1C0546022F46F02006C4DBA06982
:10049000002803DA404246F00106A061F00701D0CF
:1004A00026F010066C2D0BD0682D09D04C2D39D0BC
:1004B0006A2D35D0742D35D07A2D33D016E038E042
:1004C000E1682F4620468847B842054609D16C2F7F
:1004D00026D04FF48060E1680643204688470546F1
:1004E00004E06C2F1AD04FF4807006430DB3A5F1D1
:1004F0004100192802D8203546F400664A462946AC
:10050000204626604E46FFF72BFE80B101280BD017
:10051000F61D26F0070000F1080956E74020E4E741
:100520008020D8E70020D6E706F104094DE72846E9
:1005300052E7206ABDE8F09F20750000032A40F2D0
:10054000308010F0030C00F0158011F8013BBCF175
:10055000020F624498BF11F801CB00F8013B38BF8D
:1005600011F8013BA2F1040298BF00F801CB38BF9B
:1005700000F8013B11F0030300F02580083AC0F0B9
:10058000088051F8043B083A51F804CBA0E8081061
:10059000F5E7121D5CBF51F8043B40F8043BAFF394
:1005A0000080D20724BF11F8013B11F801CB48BFEE
:1005B00011F8012B24BF00F8013B00F801CB48BF24
:1005C00000F8012B704710B5203AC0F00B80B1E85D
:1005D0001850203AA0E81850B1E81850A0E8185078
:1005E000BFF4F5AF5FEA027C24BFB1E81850A0E881
:1005F000185044BF18C918C0BDE810405FEA827C9B
:1006000024BF51F8043B40F8043B08BF7047D207B1
:1006100028BF31F8023B48BF11F8012B28BF20F852
:10062000023B48BF00F8012B704702F0FF0343EA8A
:10063000032242EA024200F0F8B84FF0000200B58F
:10064000134694469646203922BFA0E80C50A0E8F5
:100650000C50B1F12001BFF4F7AF090728BFA0E8A3
:100660000C5048BF0CC05DF804EB890028BF40F86F
:10067000042B08BF704748BF20F8022B11F0804FB1
:1006800018BF00F8012B70474FF0013C50F8042BC5
:1006900051F8043B9A4221D1A2EB0C03934313EA95
:1006A000CC1317D150F8042B51F8043B9A4215D1C2
:1006B000A2EB0C03934313EACC130BD150F8042B99
:1006C00051F8043B9A4209D1A2EB0C03934313EA7D
:1006D000CC13DBD04FF00000704700BFD01A01BA36
:1006E000B1FA81F101F0180122FA01F0CB40C1F119
:1006F0002001DBB2C0B2C01A2CFA01F3D11A914327
:1007000011EAC311E6D170477047704770472DE971
:10071000F0470D4699469246044600F124080168C8
:10072000880604D5E06921F01001216000E0012075
:10073000A84201DD471B00E00027A1697A1902EBFE
:100740000900081AA0612078C00602D42046FFF7ED
:10075000A5FD002608E0D4E901211AF8060090471B
:10076000206A401C761C20624E45F4DB2078C006CF
:100770000AD52046FFF792FD06E0D4E9012130209A
:100780009047206A401C2062381EA7F10107F4DC64
:1007900007E0D4E9012118F805009047206A401CC1
:1007A0002062281EA5F10105F3DC2046FFF78CFD31
:1007B0002078000602D50220BDE8F0870120FBE783
:1007C00001694A1C02610878704700B58FB0CDE915
:1007D00001310021059105497944CDE90310114605
:1007E0006846FFF7E7FD0FB000BD0000E5FFFFFF23
:1007F0000A6802F8010B0A60704710B5436913B12B
:10080000AFF3008001E0FFF770FD012010BD12780A
:1008100000F124010A7000224A700122EDE71168FC
:100820004FF0FF32E9E74FF000020429C0F01280D8
:1008300010F0030C3FF403AFCCF1040CBCF1020F39
:1008400018BF00F8012BA8BF20F8022BA1EB0C0168
:10085000FFF7F5BE5FEAC17C24BF00F8012B00F86A
:10086000012B48BF00F8012B70470000004870477B
:10087000B41E00207546FFF7F9FFAE460500694635
:10088000534620F00700854618B020B5FFF7DEFC80
:10089000BDE820404FF000064FF000074FF0000881
:1008A0004FF0000B21F00701AC46ACE8C009ACE802
:1008B000C009ACE8C009ACE8C0098D46704710B566
:1008C0000446AFF300802046BDE81040FFF75DBC52
:1008D00001491820ABBEFEE7260002007047FEE784
:1008E000704772B6FEE7000070B5044600F008F9E4
:1008F0000546601C02D004480078044400F000F96A
:10090000401BA042FAD370BD4C0000202DE9F84FE7
:10091000DFF8B8910024A9F1040B23460F2709F151
:10092000040AABF1040EC9E00125A5402A40AA4201
:100930007DD1674ED1F804C0ACEB0608B44532D087
:1009400014DCBCF1030F3AD009DCBCF1000F2AD053
:10095000BCF1010F1CD0BCF1020F31D11DE0BCF184
:10096000110F17D0BCF1120F2AD119E0B8F5881F6A
:1009700019D006DCB8F5803F15D0B8F5801F1FD11F
:1009800011E0B8F5001F0ED0B8F5041F18D10AE029
:10099000CB6815E0CB681B1D12E0CB6808330FE075
:1009A000CB680C330CE08B682BB1012B4FF00803A4
:1009B00003D0456104E0042302E0056100E0002368
:1009C000FF2A01D8064601E000F104064FEA84053B
:1009D00001D9A5F12005D6F8008007FA05FC28EA20
:1009E0000C0803FA05F548EA0508C6F800804D68CA
:1009F000ED0062D5374DAE6946F00106AE61AD69D6
:100A000024F0030605F001050095334D06EB050CB7
:100A1000DCF80850A607360F07FA06F825EA08059D
:100A2000DFF8B880404503D14FF0000817E044E0FC
:100A3000DFF8AC80404502D14FF001080FE0DFF84D
:100A4000A480404502D14FF0020808E0DFF898800A
:100A5000404502D14FF0030801E04FF0040808FAC6
:100A600006F848EA0508CCF808804D68D9F8006017
:100A7000ED024D4601D5164300E096432E604D68C9
:100A8000DAF80060AD02554601D5164300E0964302
:100A90002E604D68DBF80060AD035D4601D516435E
:100AA00000E096432E604D68DEF80060ED03754669
:100AB00001D5164300E096432E60641C0D682A465B
:100AC000E5407FF431AFBDE8F88F00000804014035
:100AD0000000111000100240000001400008014019
:100AE000000C0140001001400014014080680840E3
:100AF00000D0012070470AB1016170470904FBE78B
:100B000001488068704700004C00002070B5040068
:100B100025D094F83D00002520B984F83C502046AB
:100B200000F014FB242084F83D002068016821F0C7
:100B3000010101602068016841F400410160206802
:100B4000016821F40041016000F0A2FD4D4A616896
:100B5000914201D84C4900E04C49884201D2012021
:100B600070BD4B492368B0FBF1F15E6826F03F068B
:100B70000E435E606368934206D94FF496735943FF
:100B80004FF47A73B1FBF3F12368491C1E6A26F017
:100B90003F06314319626168914210D84900401EF6
:100BA000B0FBF1F2521CC2F30B02042A01D2042062
:100BB00022E0B0FBF1F0401CC0F30B001CE0A26887
:100BC000F2B301EBC10303EB0116431EB3FBF6F3D3
:100BD0005B1C43F480431B0549D092B301EBC10277
:100BE00002EB0111401EB0FBF1F0401CC0F30B0002
:100BF00040F4804040F400402168CA694CF6FF731D
:100C00009A431043C861D4E9071001432068026881
:100C100022F0C00211430160D4E9030101432068BE
:100C2000826848F2FF339A4311438160D4E9050199
:100C300008432168CA6822F0FF021043C86001E03F
:100C40000EE016E02068016841F0010101602564B2
:100C5000202084F83D00256384F83E50002070BDBC
:100C600001EB4106431EB3FBF6F35B1CB3E7012027
:100C7000C2E701EB4101401EB0FBF1F0401CC0F3A4
:100C80000B00B7E7A086010080841E0000093D002C
:100C900040420F002DE9F84F1F4690468A46044611
:100CA000DDF82890FFF72CFF054694F83D0020283A
:100CB0007FD11923012240492046009501F0F4FA22
:100CC000002876D194F83C00012872D0012084F8E5
:100CD0003C0020680168C90703D1016841F00101A7
:100CE00001602068016821F400610160212084F81E
:100CF0003D00102084F83E0000262664C4F82480BD
:100D00006785608D20852D48E0622B464A46514616
:100D1000204601F07DF990B9206841698069009012
:100D200036E02A464946204601F09CFB50B1206C33
:100D3000042804D12068016841F400710160012099
:100D4000BDE8F88F606A216800780861606A401C1D
:100D50006062618D491E6185218D491E89B22185A0
:100D600022685369DB435B070BD451B100781061F3
:100D7000606A401C6062608D401E6085208D401E50
:100D800020852A464946204601F062FA0028CED145
:100D9000208D0028C5D154F83D0B016841F4007145
:100DA0000160202004F81E09E67766770020C7E777
:100DB000FFE70220C4E70000020010000000FFFF70
:100DC0002DE9FF4F83B00025DDE910799A4693465F
:100DD0000446DDF848800095FFF792FE064694F839
:100DE0003D0020287CD11923012288492046009605
:100DF00001F05AFA0028F5D194F83C0001286FD090
:100E0000012084F83C0020680168C90703D101680B
:100E100041F0010101602068016821F40061016076
:100E2000222084F83D00402084F83E00256467625B
:100E3000A4F82A90608D20857548E062CDE900868F
:100E400053465A462046049901F030F900287CD1D7
:100E5000208DDFF8C091202768B1012814D0022826
:100E6000206801681ED041F48061016020684169FA
:100E700080690090BCE02068416981690091016847
:100E800041F400710160B3E02068016821F48061E1
:100E9000016072B62068416981690091016841F47E
:100EA00000710AE041F40061016072B62068416996
:100EB00081690091016821F48061016062B697E068
:100EC000032865D801280CD0022843464FF00002C1
:100ED0004946204600960BD001F0E6F9A8BB0CE08D
:100EE00091E032464146204601F084FA68BB72E048
:100EF00001F0DAF948BB72B633E02068016821F4EA
:100F00008061016072B620680069616A0870606A79
:100F1000401C6062208D401E2085608D401E6085D3
:100F20003D4846F2A8110068B0FBF1F0C0EBC000EC
:100F300000EB80000090401E009007D020684069C0
:100F4000C04340070DD50098F5E727E044F8305F2F
:100F50006773A573206940F02000206162B6257395
:100F60001CE02068016841F400710160206800699C
:100F7000616A0870606A401C6062218D491E21858B
:100F8000618D491E618562B621680969017026E09C
:100F900032464146204601F02DFA18B1012007B033
:100FA000BDE8F08F20680069616A0870606A401CC3
:100FB0006062208D401E81B22185608D401E60855B
:100FC00020684269D243520712D4032903D1016831
:100FD00021F48061016020680069616A0870606ABC
:100FE000401C6062208D401E2085608D401E608503
:100FF000208D00287FF464AF84F83D7084F83E5063
:1010000084F83C50CBE70220C9E700000200100042
:101010000000FFFF04000100580000202DE9FF4FF1
:1010200083B09A46DDE9119793460446DDF8408087
:10103000FFF766FD054694F83D0020287FD119236F
:10104000012240492046009501F02EF9002876D172
:1010500094F83C00012872D0012084F83C002068FC
:101060000168C90703D1016841F0010101602068EE
:10107000016821F400610160212084F83D004020D6
:1010800084F83E0000262664C4F82480A4F82A9040
:10109000608D20852C48E062CDE9007553465A46A4
:1010A0002046049901F080F870B930E02A463946AC
:1010B000204601F0D7F958B1206C042804D12068EB
:1010C000016841F400710160012007B0BDE8F08FB4
:1010D000606A216800780861606A401C6062218D46
:1010E000491E89B22185628D521E6285226853692C
:1010F000DB435B070BD469B100781061606A401C68
:101100006062208D401E2085608D401E6085208D90
:101110000028CBD12A463946204601F099F800280C
:10112000CAD154F83D0B016841F4007101602020E0
:1011300004F81E09E67766770020C6E7FFE702207D
:10114000C3E70000020010000000FFFF30B585B0CB
:1011500000210091019102910391214D0368214CDE
:10116000122103222048AB421DD1A36943F008039A
:10117000A361A369039203F0080304931302CDE96A
:1011800000316946FFF7C2FB1848416841F0E06151
:1011900041F002014160E06940F40010E061E06963
:1011A00000F4001019E0124DAB4217D1A36943F0CF
:1011B0000803A361A369039203F0080304934FF4A7
:1011C0004063CDE900316946FFF7A0FBE06940F4D8
:1011D0008000E061E06900F48000049005B030BD5B
:1011E0000054004000100240000C0140000001408B
:1011F00000580040024881680278114481607047BD
:101200004C000020074810B5016841F01001016052
:10121000032000F0A7F80F2000F006F800F050F8C7
:10122000002010BD0020024030B505461F4887B0A1
:10123000C16941F00401C161C06906A900F0040060
:10124000009001A800F004FA0498B0B100F020FA70
:1012500040001749174AB0FBF1F11748491E0260D8
:10126000416040F2E7320021C0E9032181608161E1
:1012700000F0B3FD040003D015E000F009FAE8E740
:101280000D4800F0D9FD04000DD11E2000F03CF8FF
:10129000102D07D2002229461E2000F043F80748EF
:1012A000056000E0012407B0204630BD0010024078
:1012B00040420F0000080040980500205000002028
:1012C0000F4808B5816941F001018161816901F030
:1012D00001010091C16941F08051C161C0690022E2
:1012E00000F0805000900F21901E00F01BF8054880
:1012F000416821F0E06141F00071416008BD0000EB
:101300000010024000000140002809DB00F01F022D
:10131000012191404009800000F1E020C0F8001157
:1013200070470000F0B40E4B1B680C46C3F3022359
:10133000C3F10705042D00D90425191D072901D281
:10134000002300E0DB1E012606FA05F1491E2140BC
:1013500099409E40761E16403143F0BC02F028BDF5
:101360000CED00E0064900F0070208684FF6FF03A5
:10137000184040EA0220034A10430860704700000A
:101380000CED00E00000FA050149012008627047F9
:1013900000000E4210B501460020234C012922D046
:1013A000022939D010291DD161682268D20119D5CE
:1013B0001E48C1F38342C903805C0AD561681B4A99
:1013C000C1F34041921E515C194AB2FBF1F148430E
:1013D00001E0184948436168490203D440000321F1
:1013E000B0FBF1F010BD226AC2F30121012903D143
:1013F000920701D5C80310BD022905D1626A920780
:1014000002D549F6404010BD0329FCD1216889036B
:10141000F9D54FF2244010BD00F04AF96168C1F3DC
:101420008131491C4900DBE700100240C078000808
:1014300000127A0000093D002DE9F84305460078C6
:10144000354CC00754D0E0690026C00008D4E069DC
:1014500040F08050E061E069012600F0805000908B
:101460002E480168C90512D40168804641F4807194
:101470000160FFF745FB074605E000BFFFF740FBB3
:10148000C01B642823D8D8F80000C005F6D5206A10
:1014900010F4407021D0A98801F4407181421CD021
:1014A000206A1F49012220F440700A6000220A606D
:1014B0002062C00711D0FFF723FB074641F28838AE
:1014C00008E000BFFFF71CFBC11B414502D9032008
:1014D000BDE8F883206A8007F4D5206A696820F4A3
:1014E0004070084320621EB1E06920F08050E06146
:1014F0002878800705D56068A96820F44040084333
:1015000060602878C00605D56068E96820F480002E
:10151000084360600020DBE70010024000700040DC
:10152000400442422DE9F0470F46050061D0434E8A
:10153000306800F00700B84209D2306820F0070098
:1015400038433060306800F00700B84251D1286855
:101550003B4C810712D5400703D5606840F4E0603A
:1015600060602878000703D5606840F460506060D0
:101570006068A96820F0F000084360602878C00720
:1015800028D06868012810D02168022810D0890767
:1015900000292EDA616821F0030101436160FFF741
:1015A000AFFA804641F288390DE021688903EFE700
:1015B0008901EDE7FFF7A4FAA0EB0801494502D93C
:1015C0000320BDE8F0876068696800F00C00B0EBAC
:1015D000810FEFD1306800F00700B8420BD93068B6
:1015E00020F0070038433060306800F00700B84250
:1015F00001D00120E5E72878400705D56068E96853
:1016000020F4E060084360602878000706D5606831
:10161000296920F4605040EAC100606000F058F889
:101620006168084AC1F30311515CC840064908606B
:1016300006480068FFF7F8FD0020C2E700200240DE
:1016400000100240D0780008580000205000002010
:101650000F2202600C4A536803F00303436053688F
:1016600003F0F0038360536803F4E063C3605268DF
:101670004FF4E06303EAD20202610448006800F01C
:101680000700086070470000001002400020024080
:101690000448054900684968044AC1F30221515CC5
:1016A000C84070475800002000100240E078000851
:1016B0000448054900684968044AC1F3C221515CE5
:1016C000C84070475800002000100240E078000831
:1016D0000E4A51680E4801F00C03042B11D0082B60
:1016E0000FD10C48C1F38343C903C05C0AD55168CC
:1016F000084AC1F34041921E515C054A5043B0FB79
:10170000F1F0704704494843704700000010024060
:1017100000127A00AE78000800093D002DE9F84F6C
:10172000040070D02078C04DC00749D06868C0F36D
:101730008100012807D06868C0F38100022809D120
:101740006868C00306D52868800339D5606800281A
:10175000E7D035E06068B0F5803F0BD010B1B0F550
:10176000A02F11D0286820F480302860286820F449
:10177000802002E0286840F480302860606890B1E2
:10178000FFF7BEF906460AE0286840F4802028608A
:10179000F0E700BFFFF7B4F9801B642873D828680E
:1017A0008003F7D50CE0FFF7ABF9064605E000BF74
:1017B000FFF7A6F9801B6428F0D828688003F7D4C7
:1017C00020789A4E80074FF001094FF0000839D574
:1017D000686810F00C0F07D06868C0F38100022819
:1017E00009D16868C00306D42868800714D5206929
:1017F000012808D110E02069B0B1C6F80090FFF7C9
:101800007FF9074605E00AE1FFF77AF9C01B0228D5
:10181000C4D828688007F7D52868616920F0F800E7
:1018200040EAC10028600DE0C6F80080FFF768F9C3
:10183000074604E0FFF764F9C01B022823D8286894
:101840008007F7D4207800072CD57948A169D9B151
:10185000C0F80090FFF754F9074604E0FFF750F98D
:10186000C01B02280FD8686A8007F7D571484FF46B
:10187000FA510068B0FBF1F0009000BF0098411EE3
:101880000091FAD20EE080E0C0F80080FFF738F94E
:10189000074604E0FFF734F9C01B022875D8686AD0
:1018A0008007F7D42078400760D5E8690027C0009A
:1018B00008D4E86940F08050E861E869012700F049
:1018C000805000905C480168C90513D401688346C4
:1018D00041F480710160FFF713F9824606E000BF12
:1018E000FFF70EF9A0EB0A0064284ED8DBF80000E1
:1018F000C005F5D5E06801280AD008B1052813D045
:10190000286A20F001002862286A20F0040002E022
:10191000286A40F001002862E06841F2883B98B1F3
:10192000FFF7EEF882460BE0286A40F004002862D8
:10193000EEE700BFFFF7E4F8A0EB0A0159455AD8DB
:10194000286A8007F6D50CE0FFF7DAF8824605E052
:10195000FFF7D6F8A0EB0A0159454CD8286A800752
:10196000F6D41FB1E86920F08050E861E06988B3DF
:101970006968C1F38101022944D00228C6F8608059
:1019800004D0FFF7BDF8044638E034E0FFF7B8F8BC
:10199000074604E0FFF7B4F8C01B02282BD82868DC
:1019A0008001F7D4206AB0F5803F05D16868A1684E
:1019B00020F4003008436860D4E9080108436968EE
:1019C00021F4741108436860C6F86090FFF798F836
:1019D000044606E025E000BFFFF792F8001B02284E
:1019E00009D828688001F7D51BE000BFFFF788F809
:1019F000001B022802D90320BDE8F88F2868800167
:101A0000F4D40EE00128F7D06868226A00F480312F
:101A1000914204D1616A00F47010884201D0012023
:101A2000EAE70020E8E70000001002400000424220
:101A3000800442425800002000700040F8B50500C4
:101A40004FF0000016460C46009006D02CB1002244
:101A50006946284600F019F808B10120F8BD287B36
:101A60002070E87BE070697B6170A97BA17056B142
:101A700001F035FAE070607801F031FA6070A0781A
:101A800001F02DFAA0700020F8BD2DE9F047914635
:101A90000C465FEA00084AD084B3D8F800004068DA
:101AA000400744D4404601F0B9FA4FF4616205465C
:101AB000B0FBF2F1B0FBF2F302FB13503C23B0FB9E
:101AC000F3F0B5FBF2F6607002FB1650B0FBF3F2D8
:101AD00003FB1200A070182931D31820B1FBF0F7D6
:101AE000B1FBF0F200FB12102070404601F08FFABB
:101AF000411C04D0A84202D9461B02E017E04FF077
:101B0000FF36A7EB071000EB4000C0EB001005EB21
:101B1000C0152946404601F0D0FA40B9701C01D0EA
:101B2000711900E03146404601F0B3FA10B10120CE
:101B3000BDE8F0873946404601F0DCF900E021704D
:101B4000B9F1000F0BD0207801F0C9F9207060784E
:101B500001F0C5F96070A07801F0C1F9A070002013
:101B6000E6E7000070B5040003D0607C002610B1E9
:101B700005E0012070BD2674204600F03DF80220EB
:101B80006074204600F00AF9042550BB204601F09D
:101B900008FA30BB2068416821F007014160A06865
:101BA00020B11448016821F0010101601148001FB3
:101BB0000168A26821F46071114301606068411CF2
:101BC00004D10120FFF7E6FB58B1401E2268C0F3A4
:101BD00003419160216880B2C860204601F0FCF9A1
:101BE00008B16574C5E7E67301206073A073607483
:101BF000002070BD306C004008B50068084988427C
:101C00000DD1FFF7C1FB0748C16941F00061C16117
:101C1000C069054900F0006000900120086008BD1F
:101C200000280040001002403C0442422DE9F041EF
:101C30000D4604003BD0C5B3207C01283AD04FF0BC
:101C4000010884F8108002206074E87872B301F013
:101C50003DF9E073687801F039F96073A87801F014
:101C600035F9A073C2B2617BE07B01F0E7F9207324
:101C70002870204601F0D2F94FF46161B0FBF1F118
:101C8000002518292DD91822B1FBF2F1A1EB011181
:101C900001EB4101C1EB011100EBC11631462046B9
:101CA00001F00BFA0427C8B90BE000E004E00120C2
:101CB000BDE8F0810220FBE7E07368786073A878E4
:101CC000CFE7204601F0A3F9411C0AD0B04208D268
:101CD00006490144204601F0DCF910B1677425740F
:101CE000E5E784F8118025740020E1E780510100C8
:101CF0002DE9F0410D46040024D01DB3207C0128BD
:101D000023D04FF0010884F81080022060742878F6
:101D1000EAB101F0DBF84FF4616100FB01F668788D
:101D200001F0D4F8C0EB001006EB8006A87801F0B3
:101D3000CDF835182946204601F0BFF900260427C2
:101D400010BB0FE00120BDE8F0810220FBE74FF45B
:101D5000616148436978C1EB011100EB8100A9780A
:101D60004518E7E72068416821F0050141602046F9
:101D700001F04DF9411C0AD0A84208D2064901449D
:101D8000204601F086F910B167742674DAE784F80A
:101D9000118026740020D6E78051010070B5040040
:101DA0000AD02068416821F008014160FEF7A8FED2
:101DB00005464FF47A7608E0012070BDFEF7A0FEDC
:101DC000401BB04201D9032070BD20684068000765
:101DD000F4D5002070BD7047704710B5040003D0E3
:101DE00094F83D0010B107E0012010BD002084F8F8
:101DF0003C00204600F01EF8022084F83D00211D22
:101E0000206801F085FF012084F8460084F83E0038
:101E100084F83F0084F8400084F8410084F84200D0
:101E200084F8430084F8440084F8450084F83D00B9
:101E3000002010BD7047000090F83D10012901D02E
:101E400001207047022180F83D100168CA6842F005
:101E50000102CA6000680B49884208D0B0F1804F87
:101E600005D00949884202D00849884204D18168D6
:101E700001F00701062903D0016841F0010101606A
:101E800000207047002C0140000400400008004082
:101E900070472DE9F04104460068C66805694FF0B7
:101EA0000007A90713D5B10711D5F91E016101205B
:101EB0002077206880698007204602D0FFF7E8FF7E
:101EC00004E000F07EF8204600F07CF827776807F1
:101ED00016D5700714D521686FF004000861022040
:101EE00020772068806910F4407F204602D0FFF7F9
:101EF000CFFF04E000F065F8204600F063F8277794
:101F0000280715D5300713D521686FF00800086140
:101F1000042020772068C0698007204602D0FFF7A0
:101F2000B7FF04E000F04DF8204600F04BF82777AB
:101F3000E80616D5F00614D521686FF01000086188
:101F4000082020772068C06910F4407F204602D026
:101F5000FFF79EFF04E000F034F8204600F032F86E
:101F60002777E80708D0F00706D021686FF0010056
:101F70000861204600F028F8280608D5300606D566
:101F800021686FF0800008612046FFF724FF680693
:101F900008D5700606D521686FF04000086120461C
:101FA00000F01CF8A8060AD5B00608D521686FF025
:101FB000200008612046BDE8F041FFF70DBFBDE8F5
:101FC000F08170477047000000680349884201D1E2
:101FD000FFF710B970470000000800407047FEE7A7
:101FE00001684A69D24352050FD46FF480624A6196
:101FF000002140F8301F202242738173026942F0B1
:102000000402026101730120704700207047000044
:10201000F8B50446C06A1E460D461746082807D084
:10202000012805D010F5803F02D0206B122804D182
:102030002068016841F480710160134600224FF06E
:1020400001112046009600F02FF940B12068006889
:10205000C00502D54FF4007020640320F8BD20694C
:10206000B0F5804F0ED00620216800EAD51040F070
:10207000F000086133463A460B49204600F05CF90F
:1020800078B902E005F0FE0000E0E8B221680861DE
:10209000054933463A46891F204600F04DF900288D
:1020A000DCD00120F8BD0000080001002DE9F84F48
:1020B0000446006889460B9D01689846174641F41E
:1020C000806101602068016841F4807101600095C1
:1020D0004FF0011B0022594620460A9B00F0E4F80D
:1020E0004FF4007A40B120680068C00501D5C4F8FB
:1020F00040A00320BDE8F88F216809F0FE000861C8
:102100002B46284920460A9A00F016F9F0BB2068B1
:102110004169806900902A4620460A9900F0A2F998
:1021200040B1206C04283AD12068016841F4007164
:10213000016034E0FEB2B8F1010F09D02168380A1D
:1021400008612A4620460A9900F08CF90028E8D157
:10215000206806612A4620460A9900F083F9002883
:10216000DFD12068016841F4807101600095002290
:10217000594620460A9B00F097F80028B3D1216801
:1021800009F0FF0040F00100086100E007E02B4685
:10219000044920460A9A00F0CFF80028AAD001206E
:1021A000A8E70000020001002DE9F843044600689A
:1021B0000D46DDE9089701689846164641F480719E
:1021C00001604B4600224FF001112046009700F0BD
:1021D0006BF848B120680068C00502D54FF4007064
:1021E00020640320BDE8F883216805F0FE00086143
:1021F0003B464A461549204600F09EF888B92068BB
:102200004169806900903A464946204600F02AF923
:1022100048B1206C042804D12068016841F40071A1
:1022200001600120DEE7F5B2B8F1010F09D02168A5
:10223000300A08613A464946204600F013F9002862
:10224000E7D1206805610020CCE700000200010012
:1022500070B516460D4604461EE02046FFF7C0FE48
:1022600008B1012070BD681C16D0FEF749FC801B28
:10227000A84200D885B920684069C04340070BD503
:10228000002044F8300F20216173A073216941F0D0
:10229000200121612073E4E720684069C0434007C2
:1022A000DBD4002070BD00002DE9F04798461746AA
:1022B0000D460446C1F30746DDF820902AE000BF32
:1022C000B8F1FF3F26D0FEF71BFCA0EB090141450A
:1022D00002D8B8F1000F1DD12068012E16D08069F8
:1022E00025EA00000004000C12D00020B84211D1F1
:1022F000002044F8300F20216173A073216941F060
:102300002001216120730120BDE8F0874069E7E7E3
:102310000120EBE72068012E0AD0806925EA000041
:102320000004000C06D00020B842C9D00020EBE722
:102330004069F3E70120F7E72DE9F0479846164694
:102340000D4604464FF000094FF0200AC1F307473D
:1023500023E020684069C043400515D42068016827
:1023600041F40071016021686FF480604861C4F835
:10237000309084F83DA084F83E90216C41F0040137
:10238000216484F83C9021E0701C06D0FEF7B8FB75
:10239000A0EB0800B04203D816B1012F1FD021E0F6
:1023A0002068012F15D0806925EA00000004000C88
:1023B00018D000BF44F8309F84F80DA084F80E9028
:1023C000216941F02001216184F80C900120BDE8D1
:1023D000F087406925EA00000004000CEAD120687B
:1023E000406901E02068806925EA00000004000CD3
:1023F000AFD1ECE72DE9F041002590460E460446AA
:10240000202728E04069C043C0060CD454F8301B94
:102410006FF01000486144F810596777A577206A7B
:102420002062257714E0FEF76BFBA0EB0800B042BA
:1024300000D886B920684069C04340060BD544F8EF
:10244000305F6773A573206940F020002061257319
:102450000120BDE8F08120684169C9434906D1D413
:102460000020F6E770B516460D4604461EE02046ED
:10247000FFF7B6FD08B1012070BD681C16D0FEF74D
:102480003FFB801BA84200D885B920684069C04343
:1024900000060BD5002044F8300F20216173A07393
:1024A000216941F0200121612073E4E7206840693F
:1024B000C0430006DBD4002070BD00001CB50446FC
:1024C000002000900246019069460D48FFF7DDFAB2
:1024D000002201A90A48FFF7B1FA9DF80700207011
:1024E0009DF8050060709DF80600A0709DF8000042
:1024F000E0709DF8010020719DF8020060711CBD24
:10250000840500202DE9F0470746DDE9089A1D46BD
:1025100090460E463B2000F059F804463C2000F05F
:1025200055F840EA042038803D2000F04FF804467A
:102530003E2000F04BF840EA042030803F2000F0BD
:1025400045F80446402000F041F840EA0420A8F88D
:102550000000432000F03AF80446442000F036F82A
:1025600040EA04202880452000F030F80446462048
:1025700000F02CF840EA0420A9F80000472000F001
:1025800025F80446482000F021F840EA0420AAF883
:102590000000BDE8F08710B501216B2000F028F89D
:1025A00000216C2000F024F80421192000F020F80C
:1025B00006211A2000F01CF818211B2000F018F842
:1025C0001821BDE810401C2000F012B81FB564238C
:1025D000012203A98DE80E0013460246D0210348CC
:1025E000FEF7EEFB9DF80C0004B010BD3005002096
:1025F00003B583B06423012204A98DE80E001346BD
:102600000246D0210248FEF709FD05B000BD0000DA
:102610003005002010B50E4A00210E4801F062FD81
:102620000D4C0B4A0021606224320C4801F05AFD27
:10263000074AA06248320021094801F053FD044ACC
:10264000E0626C320021074801F04CFD206310BDB0
:10265000DC77000895330008100000209D33000847
:102660002D3100088D3B00082DE9F04186B0002493
:102670001F480094019402940394816941F0200161
:102680008161816901F020010491816941F00401B7
:102690008161816901F004010491816941F00801BF
:1026A00081618069012200F00800DFF84880D703CB
:1026B000049039464046FEF71EFA502001258DE869
:1026C000310069460C48FEF721F90226009669465A
:1026D0004046CDE90145FEF719F900970396CDE98B
:1026E000015469464046FEF711F906B0BDE8F08195
:1026F00000100240000C0140000801400D4810B5D8
:102700000B4901600C49416000214FF48042816017
:10271000C0E9031241618161C1610162FEF7F6F90E
:10272000002803D0BDE81040FEF7DBB810BD000064
:1027300000540040DC040020A08601000D4810B5C4
:102740000B4901600C49416000214FF480428160D7
:10275000C0E9031241618161C1610162FEF7D6F9EE
:10276000002803D0BDE81040FEF7BBB810BD000044
:102770000058004030050020A08601001CB5002450
:1027800018480194164900940160611E41604FF49D
:1027900080718160FFF7E6F908B1FEF7A2F88DF8C5
:1027A00004408DF805408DF80640012201A90D482E
:1027B000FFF79EFA08B1FEF794F801208DF80000AB
:1027C0008DF801008DF8020002468DF8034069463D
:1027D0000448FFF72BFA002801D0FEF782F81CBD51
:1027E0000028004084050020FEE7FEE710B5002128
:1027F000074C0A46002004EBC1131A54401CC0B217
:102800008028FAD3491CC9B20829F3D310BD0000AF
:10281000DC000020F0B50B4424E0044685181DE0E0
:102820007F2C19D8002917DB3F2915DCCE1701EBC7
:1028300056764FEAE60C0D4F26F0070607EBCC174D
:102840002744A1EB060E97F800C0012606FA0EF603
:102850002CEA060C87F800C0641C24B2A542DFDC19
:10286000491C09B28B42D8DCF0BD0000DC0000201E
:102870002DE9FF4F804687B0C2F101001446039056
:102880000D46081901B200264746404600F004F9FB
:10289000281B01B2384600F0FFF808EB040000B234
:1028A000294600F0F9F8A8EB040000B2294600F030
:1028B000F3F80A98002875D0674206E0E81901B2DB
:1028C000404600F0E9F87F1C3FB2A742F6DB69E022
:1028D000761C039836B2002802DA00EB460004E0CA
:1028E000641E24B2311B00EB4100401C00B2039077
:1028F000281901B208EB060000B281460291069049
:1029000000F0CAF8A81901B208EB040000B283462F
:10291000059100F0C1F8281B01B2A8EB060000B237
:102920000F460190009000F0B7F8A81B01B2A8EB89
:10293000040000B28246049100F0AEF839464846E1
:1029400000F0AAF85846049900F0A6F802990098F9
:1029500000F0A2F85046059900F09EF80A9808B3D6
:10296000604207B20BE0E81901B28946069800F010
:1029700093F84946019800F08FF87F1C3FB2A742B8
:10298000F1DB704207B20BE0E81901B2894650460C
:1029900000F082F84946584600F07EF87F1C3FB2AE
:1029A000B742F1DBA64293DB0BB0BDE8F08F2DE917
:1029B000F04F1E464FF0000904460D461746C84624
:1029C000B1420ED1BC4208DD2746144605E0294637
:1029D000204600F061F8641C24B2BC42F7DDBDE87B
:1029E000F08FBC420DD1B54208DD1D460E4605E014
:1029F0002946204600F050F86D1C2DB2B542F7DD97
:102A0000EDE703DD274614461D460E46B54205DDBB
:102A1000684205B2704206B24FF00109701B391BC3
:102A2000884207DD20462C4605463846374606468E
:102A30004FF00108701B4200391B0FFA82FB421A4B
:102A400052000FFA82FAC1EB400019E0604201B275
:102A500003E0684201B203E02146284601E029462E
:102A6000204600F019F8BC42B9DA641C24B2002EEA
:102A700002DA06EB0B0003E06D1C2DB206EB0A0038
:102A800006B2B9F1000F03D0B8F1000FE1D0DDE7D5
:102A9000B8F1000FE3D0DFE710B57F2813D8002985
:102AA00011DB3F290FDCCA1701EB5272D410064B21
:102AB00022F0070203EBC41318448A1A0378012199
:102AC00091400B43037010BDDC00002010B5642062
:102AD000FDF70AFFAE2000F0C5F9D52000F0C2F9DD
:102AE000802000F0BFF9A82000F0BCF93F2000F0E2
:102AF000B9F9D32000F0B6F9002000F0B3F9402076
:102B000000F0B0F9A12000F0ADF9C82000F0AAF95A
:102B1000DA2000F0A7F9122000F0A4F9812000F0DB
:102B2000A1F9CF2000F09EF9D92000F09BF9F12007
:102B300000F098F9DB2000F095F9302000F092F9D0
:102B4000A42000F08FF9A62000F08CF98D2000F071
:102B500089F9142000F086F9AF2000F083F9FFF71F
:102B600045FEBDE8104000F039B90000F0B50B4457
:102B700023E0044685181CE07F2C18D8002916DBBA
:102B80003F2914DCCE1701EB567C4FEAEC070C4EC4
:102B90002CF0070C06EBC7162644A1EB0C0E377879
:102BA0004FF0010C0CFA0EFC87EA0C073770641C1E
:102BB00024B2A542E0DC491C09B28B42D9DCF0BD4D
:102BC000DC00002010B5891CCCB240F0B00000F051
:102BD00049F9102040EA141000F044F904F00F0005
:102BE000BDE8104000F03EB908B5082B0ED0062B0A
:102BF00015D00C2B1ED1104B02EBC20203EB82024C
:102C0000A2F59062182300920C2211E00B4B03EB0B
:102C10000212A2F5007210230092082208E0084B6D
:102C200002EB420203EB4202C03A00920823062262
:102C300000F008F808BD000040660008165E0008B5
:102C4000066400082DE9F04F1F4616460D468246E1
:102C50000024FFF7DFFD7F1EF81707EB50700121FE
:102C6000DFF898B001EBE00743E000203DE000BF53
:102C70000AEB00037F2B36D8E91705EB5171CA1018
:102C800021F00701691A002D03DA521E083112B231
:102C900009B202EB0409B9F1070F0ED8099A04FB37
:102CA00006F802440BEBC91E18F802201EF803C0F8
:102CB0008A404CEA020C0EF803C009F10102072A0F
:102CC00011D80BEBC91202EB0308099A04FB06FCAE
:102CD000024498F880301CF80220C1F10801CA4073
:102CE000134388F88030401CC0B2B042C0D3641C8B
:102CF000E4B2A742B9DCBDE8F08F0000DC000020A0
:102D00002DE9FF4F002583B09B4690462C46AA46EE
:102D1000DFF8C09056E010068DF8042005F101059B
:102D20000DD40398ADB220448DF805A000B25B46E7
:102D30000499FFF759FF04EB0B0084B242E0A8B2FC
:102D400018F80010002941D0401C8DF8051085B2FC
:102D50008DF806A0002606E0384601A9FDF794FC90
:102D600068B1761CB6B2C6EBC60000EB800101EB81
:102D70000900074618A1FDF787FC0028ECD1BBF13C
:102D8000080F03D0BBF1060F1CD111E0C6EBC60043
:102D900000EB800101EB0900C01C00900398102398
:102DA000204400B21A460499FFF74CFF103408E0A3
:102DB00003980623204400B23F220499FFF714FF32
:102DC000A41DA4B218F80520002AA4D107B0BDE8BC
:102DD000F08F00009C7300080000000070B5084DE3
:102DE000002400212046FFF7EDFE05EBC4108021F2
:102DF00000F04AF8641CE4B2082CF2D370BD000065
:102E0000DC0000202DE9F0410646C81701EB5070A8
:102E1000C410C8189046401EC21700EB5270012221
:102E200002EBE00005B2002902DA6D1E2DB2641E2D
:102E30000B4F11E07F2E0DD8002C0BDB072C09DC8B
:102E4000F1B2E0B2FFF7BEFE07EBC41030444146DA
:102E500000F01AF8641C24B2AC42EBDBBDE8F08150
:102E6000DC0000201CB500218DF804108DF8050051
:102E700064200090022301AA78210248FDF70AFF8E
:102E80001CBD0000DC04002030B5A3B0002919D01F
:102E9000002817D0802900D9802140228DF80420F5
:102EA000002201AB04E0845C9D18521C6C70D2B20D
:102EB0008A42F8D3C8204B1C009001AA782102480E
:102EC000FDF7E8FE23B030BDDC040020010901EB72
:102ED000810100F00F0000EB4100C0B270470021FB
:102EE00002E00A38C0B2491C0A28FAD2090740EAAF
:102EF000116070472DE9F04104460025C07B627BDC
:102F0000A37B42E0012A16D0032A14D0052A12D04E
:102F1000072A10D0082A0ED00A2A0CD00C2A0AD070
:102F2000042A10D0062A0ED0092A0CD00B2A0AD067
:102F3000022A0DD028E01F2B0CD30C2A05D1012228
:102F40001346401C20E01E2B04D30123521C1BE01F
:102F50001C2B02D203F1010316E011D183B29E07AC
:102F600010D16426B3FBF6F706FB173636B94FF4DB
:102F7000C876B3FBF6F706FB17331BB91D2303E036
:102F80001D2B01D1032201236D1C8D42BAD3D1B276
:102F9000E0736173DAB2A27300F050F82073BDE8F9
:102FA000F08170B50446FDF7ABFD05464FF47A7627
:102FB00006E0FDF7A5FD401BB04201D9032070BD1E
:102FC000206840688006F4D52068416841F010010F
:102FD0004160002070BD000070B504460068416883
:102FE00021F010014160FDF78BFD05464FF47A7624
:102FF00007E000BFFDF784FD401BB04201D903206C
:1030000070BD206840688006F4D5002070BD01685E
:10301000086A496A89B241EA0040704700688169DC
:103020008AB2C1698BB2816989B28A4203D0C06910
:1030300061F31F40704743EA02407047F0B56424D3
:10304000C1EBC1030927A500072603EB01130329E0
:10305000B3FBF7F100F5FA60114401440AD2401EB7
:10306000B0FBF4F201EB9001B0FBF5F0891A0844D3
:10307000001D08E0B0FBF4F201EB9001B0FBF5F0AD
:10308000891A0844801CB0FBF6F106FB1100C0B29F
:10309000F0BD70B50D4606460024FFF782FF48B923
:1030A0003168280C08623168A8B248623046FFF7E0
:1030B00093FF00B10124204670BD70B50D46064651
:1030C0000024FFF76EFF48B93168280C8861316829
:1030D000A8B2C8613046FFF77FFF00B10124204647
:1030E00070BD00001CB500210091019101788DF8A0
:1030F000071041788DF8051081788DF80610C17899
:103100008DF8001001798DF8011040798DF80200DA
:10311000002269460448FEF7EBFD002201A902489F
:10312000FEF784FD1CBD00008405002002218B48B1
:10313000FDF7DCFC8A4D814640212846FDF7D6FC90
:10314000804610212846FDF7D1FCDFF818B207466B
:10315000AA4602218148FDF7C9FC06464021544693
:103160005046FDF7C3FC054610212046FDF7BEFC86
:103170000446F6B9B9F1010F1BD19BF8001058466F
:1031800039B10178032907D00078D946022806D042
:1031900008E00021744800E00121017009E0734853
:1031A000FFF7A0FF72490020087089F800006E49FF
:1031B0000870002D69D1B8F1010F66D19BF800109D
:1031C000584649B10178012909D0017802290CD06B
:1031D000007803284BD058E00120634954E065484B
:1031E0000178491C01F003011EE0614800780028C5
:1031F000614839D0007878B1012817D002281FD053
:10320000032827D059493C230A5C521CB2FBF3FC2B
:1032100003FB1C220A5438E0544864220178491CFC
:10322000B1FBF2F302FB131101702EE04F480C22A8
:103230004178B1FBF2F302FB1311491C417024E009
:103240004A481F228178B1FBF2F302FB1311491C9B
:1032500081701AE045481822C178491CB1FBF2F38D
:1032600002FB1311C17010E001780622D7E7434832
:103270000078032809D14248007830B9414900203C
:103280000880414908704149087014BB012F5DD185
:103290009BF800005F4648B1387801281ED0387886
:1032A000032826D03878022835D04FE02E48007801
:1032B00000284FF001000DD02C493439487002200D
:1032C00038702D4900200870294908702748FFF7F9
:1032D000F5F83BE038700020264936E0234901200C
:1032E000343948702348017824480170032038702D
:1032F0002CE02248017819B10078032804D025E099
:10330000234802E0017021E01D48017809B1002145
:10331000F8E70121F6E7DFF8588098F8000048B197
:1033200015480178052908D20178491C017001214E
:103330004046E7E70120414607E00C48FFF7D2FE90
:10334000002088F80000387007490870B146A84688
:1033500027463C2000F08BFEFBE60000000C0140FD
:103360000008014007000020080000204400002061
:103370000C000020090000200A0000200B000020A3
:1033800000000020040000200200002001000020B6
:1033900006000020012000F06AFEFBE7A0B0FFF766
:1033A00095FBFF4CDFF8FC83FF4D4FF00009607880
:1033B00040B1FFF71BFAFFF711FD84F801901420CC
:1033C00000F055FE2878032804D198F800004646FE
:1033D000032803D0287803287ED196E02978E06975
:1033E000884203D13078216A814246D0FFF7FEF946
:1033F0000823EEA200211E20FFF782FCEE48DFF832
:10340000BCB3DFF8BCA3008800909BF800309AF8AA
:103410000020ECA111A8FCF72BFF0C2311AA162108
:103420001420FFF76DFC0623EAA238210020FFF7E5
:1034300067FC0623E9A238214020FFF761FCE94F31
:103440004FF00603387808B1E7A200E0E8A238217F
:103450006420FFF755FCFFF7C1FC3878A0709AF89C
:103460000000E0709BF800002071D3480088608263
:103470002878E0613078206245E0D14EE0783278FB
:10348000904209D1CD4821790078814204D1CA48BF
:10349000618A008881421DD0DFF81CA3C74FC9A1F3
:1034A000BAF8000000903B7811A8FCF7E1FE0C236D
:1034B00011AA16211420FFF723FC142118236C22D3
:1034C0000846FFF79FFC3078E07038782071BAF832
:1034D00000006082A17800E01BE0C24E307881429B
:1034E00011D04FF0060308B1BFA200E0C0A23821FE
:1034F0006420FFF705FC08231C2238216420FFF715
:1035000081FC3078A0701E20FEE198F800000128B0
:1035100001D0FFF76BF9287848B1287801285AD0F4
:10352000287803287ED0287802287CD03EE2CDF887
:103530004890002212A9B048CDF84490FEF7A5FAB1
:10354000002211A9AC48FEF779FA9DF846009DF8D3
:10355000472000909DF84530A8A101A802F5FA6225
:10356000FCF786FE0021062301AA0846FFF7C8FBE8
:103570009DF849309DF84820A4A101A8FCF778FEE9
:1035800010210C2301AA0846FFF7BAFB9DF84A2038
:103590009FA101A8FCF76CFE062301AA1821602058
:1035A000FFF7AEFB9C4800784FF008034FF0400255
:1035B0004FF0380168B14020FFF7D8FA062397A2F0
:1035C00038210220FFF79CFB0623382195A24620D4
:1035D000EAE10020F0E7082395A200211E20FFF772
:1035E0008FFB96480DF1440BDFF854A20FC88BE80F
:1035F0000F00002606EB460000EBC6000E30C7B2F7
:103600009AF80000864205D10A238022B91E0020C4
:10361000FFF7ACFA5BF82620062339460520FFF7B2
:103620006FFB01E00CE0C5E1761C042EE2DB062313
:1036300068A238210020FFF763FB062381A2B1E1D5
:1036400098F80000464648B1307801281FD03078FD
:1036500002287DD0307803287BD0A7E108237BA205
:1036600000211E20FFF74CFB7B484FF00C03007835
:1036700018B11C2179A2282002E079A21C21242063
:10368000FFF73EFB0623382152A200208CE1207870
:10369000E8B329786069884203D13178A06988420B
:1036A00007D0FFF7A3F8FFF799FB2878606130781F
:1036B000A061B4F90A0002F0DBF90646B4F906008D
:1036C00002F0D6F9314600F091FB664F394602F020
:1036D000E7F91990B4F90A0002F0CAF90646B4F9FC
:1036E000080002F0C5F9314600F080FB394602F0CF
:1036F000D7F9DFF874A10090514602F0DBF85B4F78
:10370000394602F0CDF906465146199800E00AE024
:1037100002F0D0F8394602F0C3F9554982468E428C
:103720001EDD0E461FE0082352A214212220FFF7BF
:10373000E7FA062327A238210020FFF7E1FA0C233D
:103740003C2214212220FFF75DFB0823802201E0A8
:10375000DDE004E138210020FFF754FBC820D3E06E
:10376000BE4200D93E468A4501DD8A4602E0BA459E
:1037700000D9BA46304602F05FF940300FFA80FBBC
:10378000504602F059F920300FFA80FA222702261B
:103790003D231A4631463846FFF73CF800236FE0D8
:1037A000100000200B0000200700002053746F70F1
:1037B00077617463680000000400002002000020AC
:1037C00001000020253032643A253032642E253045
:1037D000336400003C204261636B000052657365F6
:1037E000740000000000002053746F70000000009F
:1037F0005374617274000000840500202530346425
:103800002D253032642D253032640000253032649D
:103810003A25303264000000080000204D656E75C6
:103820000000000053657474696E67730000000047
:1038300046756E6374696F6E730000006C780008E3
:1038400009000020456E746572000000466C6173CB
:10385000686C696768740000060000204F4E000025
:103860004F464600E12E6542000034420000F0C1A0
:103870000000F0414D505520696E69742E2E2E00C7
:103880001E2220214020FEF7F3FF20235E2219464E
:103890002220FFF78CF840223E2302211046FFF73A
:1038A00086F80123022251465846FEF7E1FF3D23E8
:1038B0001A4631463846FFF7A5FA009802F0BCF8E0
:1038C0000646199802F0B8F8024633467DA111A8C1
:1038D000FCF7CEFC0021062311AA0846FFF710FAD8
:1038E0000021082380220846FFF78CFA0623AFF256
:1038F0001C1238210020FFF703FA08238022382108
:103900000020FFF77FFAFEE500F0B1FB4FE5B4F9C8
:10391000100002F0ADF86F4901F0CCFF6E4902F0E3
:10392000BFF802F089F8064608236CA20021242083
:10393000FFF7E6F9300001D4314600E071420A2079
:1039400091FBF0F200FB121396FBF0F264A111A8B8
:10395000FCF78EFC0823182111AA002090E608230A
:10396000AFF2B81200211E20FFF7CAF960480088A4
:1039700000906048037860480278AFF2B81111A84F
:10398000FCF776FC0C2311AA16211420FFF7B8F9D6
:103990000623AFF2C01238210020FFF7B1F9062349
:1039A000AFF2B41238215A20FFF7AAF9FFF716FA3E
:1039B0006420A9E75148007850B31822504919A84B
:1039C000FCF701FE4F4E19A8317850F821204EA186
:1039D00001A8FCF74DFC08234CA200211820FFF79A
:1039E0008FF94D483178425C4CA101A8FCF740FCAE
:1039F0000C2301AA14212420FFF782F93078E8B3C0
:103A0000012847D0022858D0032858D045A142E0C9
:103A1000082346A200211E20FFF772F93849182218
:103A2000183911A8FCF7CFFD3B48FEF747FDDFF83A
:103A3000E8B0DFF8D0A000260E2000EBC600C7B229
:103A400011A81BF8063050F826203BA101A8FCF76E
:103A50000FFC9AF80000864205D10A238022B91E85
:103A60000020FFF783F8062301AA39460020FFF75C
:103A700047F9761C062EDFDB062300E008E0AFF2F4
:103A8000AC2238210020FFF73BF906232DA289E75D
:103A90002EA100E030A111A8FCF7EAFB062311AA31
:103AA0002C210820FFF72CF906232EA23821002014
:103AB000FFF726F906232EA274E72EA1EBE730A12B
:103AC000E9E70000583A252B30336420593A252B7A
:103AD0003033640000000343000020415961770047
:103AE000526174653A252B642E256420647073003E
:103AF0000400002002000020010000200C00002033
:103B0000947800080A000020257300004564697459
:103B10002056616C75650000440000202530326439
:103B20000000000030302D3539000000536574204E
:103B300054696D650000000025733A202530326419
:103B4000000000004564697400000000596561725E
:103B50003A2030302D3939004D6F6E74683A20317B
:103B60002D3132003C2043616E63656C0000000023
:103B70004F4B00004461793A20312D333100000071
:103B8000486F75723A20302D3233000088B0FEF74E
:103B900002FD2E4C01202070322000F068FA2C4EDD
:103BA0002C4DDFF8B480DFF8B4902D4F4FF0000AB1
:103BB0004FF4004B2078D8B107A906A8CDE9000141
:103BC00005AB04AA03A902A8FEF79CFCBDF80800F7
:103BD000E080BDF80C002081BDF810006081BDF8C8
:103BE0001400A081BDF81800E081BDF81C002082FF
:103BF0003078F0B128880A3080B22880B0F57A7F1A
:103C000017D3A0F57A70288098F80010491CC9B223
:103C100088F800103C290CD388F800A099F800100F
:103C20005246491CC9B289F80010642901D389F8A9
:103C30000020387808B1002200E0012259460948E6
:103C4000FCF759FF0A2000F012FAB3E71000002039
:103C500000000020040000200200002001000020DD
:103C600006000020000C014010B54FF0E020006974
:103C700001F002FC012803D0BDE8104001F030B98A
:103C800010BD70B594B028216846FCF7D6FC14210D
:103C90000AA8FCF7D2FC00250F95092001241095F5
:103CA0000090119512954FF4803004940694CDE95C
:103CB00001050226CDE907604FF4E010099068463F
:103CC000FDF72CFD08B172B6FEE70F20CDE90A061C
:103CD0004FF48060CDE90C5002210AA80E95FDF743
:103CE00021FC08B172B6FEE74FF40070CDE90F4039
:103CF0000FA8FDF7A1FB002801D072B6FEE714B0B3
:103D000070BD70470148FEF7C4B800009805002058
:103D1000F0B50268194B1A4C1A4D4FF08047984283
:103D200005D0B84203D0A04201D0A84203D122F06E
:103D300070064A683243984205D0B84203D0A04288
:103D400001D0A84203D122F44074CA6822434C69CE
:103D500022F08002224302608A68C2620A6882629C
:103D6000984201D109690163012141610169C907D3
:103D700003D0016921F001010161F0BD002C014077
:103D80000004004000080040FEE74100080218BFA0
:103D900004200A0E18BF40F001004FF07F4232EAC3
:103DA000010108BF40F00200012808BF052070474C
:103DB0000907090E002804DB00F1E02080F8001458
:103DC000704700F00F0000F1E02080F8141D7047EC
:103DD00001F008BD6FF05E01080701F0DEBF30386A
:103DE0000A2801D201207047002070472DE9F047D2
:103DF0004FF0684202EB40030C460546B3F1654FB5
:103E00003CBF02EB4102B2F1654F7CD2C0F3C75315
:103E1000C1F3C7529A1A1B2A06DD10F0004F14BFD7
:103E200076487748BDE8F08712F11A0F17DA11F0DB
:103E3000004F06D010F0004F0CBF72487248BDE82A
:103E4000F0872146284601F035FD0446FFF79DFF27
:103E5000042808BFFFF7BEFF2046BDE8F0874200F8
:103E6000B2EB410F25D910F0004F19BF674F684ED4
:103E7000684F694E224685F0004415460A4680F098
:103E8000004110460A1A5200B2F1807F40D24840E9
:103E90006249DFF88CA110F0004F18D04FF03F4876
:103EA000384601F0D3FE07465146304601F0CEFEBB
:103EB00017E011F0004F04BF00263746E2D010F0A3
:103EC000004F19BF574F584E584F594EDAE74FF031
:103ED0007C58384601F086FC07465146304601F0D2
:103EE00081FC06464146284601F0DAFD214601F0F4
:103EF00079FC82462146404601F0D2FD294601F078
:103F00009BFE514600E037E001F0D4FC044604E09B
:103F10002146284601F0CEFC0446014601F0C0FDD2
:103F20008046444901F0BCFD434901F05BFC414639
:103F300001F0B6FD414901F055FC414601F0B0FDEC
:103F40003F4901F04FFC414601F0AAFD3D4901F017
:103F500049FC05464146204601F0A2FD294601F0F4
:103F60009FFD314601F03EFC214601F03BFC394605
:103F7000BDE8F04701F036BC4FF07F42B2EB400F96
:103F800028BFB2EB410F03D2BDE8F047FFF720BFD7
:103F900040EA01035B0008BF44F0FF410AD0B2EBE6
:103FA000400F08BFB2EB410F06D125F0804024F04E
:103FB000804105460C4629E7B2EB400F12BF5FEA8D
:103FC000410245F0FF4004F000413FF41FAF4A00BA
:103FD00092EA40033FF51AAF002AACBF4FF09F466C
:103FE0004FF03E56314601F05BFD05463146204616
:103FF00001F056FD04462846214607E7DB0FC9BFFE
:10400000DB0FC93FDB0F4940DB0F49C00000C9BFD0
:1040100022AAFDB90000C93F22AAFD390060ED3E89
:10402000C30ACE37000049C022AA7DBA0000494029
:1040300022AA7D3A2DAD65BD8FB8D53D0FB511BE15
:1040400061C84C3EA8AAAABEFDF7DCF8FFF719FE2E
:10405000FEF70AFBFEF752FBFEF770FBFEF78EFB46
:1040600000F012F8FEF7D6FA00F020F8FEE710B5DF
:10407000EFF3058111B16FF0050403E0002408B1EE
:1040800000F0F4FD204610BDEFF3058010B16FF095
:10409000050070470448016811B14FF0FF307047C8
:1040A0000121016000207047AC00002010B5EFF343
:1040B000058010B16FF0050010BD084801680129A6
:1040C00002D04FF0FF3010BD054A002182F8141DC8
:1040D0000221016000F032FE002010BDAC00002083
:1040E0000BE000E02DE9FF414FEA01034FF000052E
:1040F000EFF30581039549BB40B3802718210024C5
:104100004AB3166806B1344696691EB13146761E2A
:10411000382E02D21679F60703D0002004B0BDE88D
:10412000F081566906B1B708D2F808C0BCF1000F9B
:104130000DD0D5685C2D18D312693AB136B18DE82F
:1041400006103A46214601F06CF903900DE0D6685E
:104150005EB912694AB903AACDE90012BAB2214682
:1041600001F032F9012800D003950398D6E700004A
:104170002DE9F041134C0F460546E6682068001D06
:1041800000F040FC681C07D137B12168BDE8F04160
:104190000D48091D00F086BC20683544B5424560D5
:1041A000216805D2A06BBDE8F041091D00F062BC9A
:1041B000606B091D00F05EFCA06A854200D2A5621A
:1041C000BDE8F0815C000020D00A00202DE9F0411C
:1041D000054600F073FC2D4CA068401CA0602068D0
:1041E0002B4F10B1606930B32BE02560A068012827
:1041F00027D1002606EB860007EB800000F02CFCA0
:10420000761C382EF6D3234800F026FC21481430C3
:1042100000F022FC1F48283000F01EFC1D483C30F6
:1042200000F01AFC1B48503000F016FC194860637F
:104230001430A06305E02068E96AC06A884200D8AB
:104240002560606A401C60626864E86A216988428F
:1042500000D9206100EB800007EB8000291D00F0F1
:1042600021FC00F04BFC606900280CD02068E96A52
:10427000C06A884207D208494FF080500860BFF3F7
:104280004F8FBFF36F8FBDE8F08100005C0000200E
:1042900020060020800A002004ED00E038B500F080
:1042A0000DFC104C2068C8B90F4800F0D5FB0E4833
:1042B000143000F0D1FB0C48E060143020610A4B50
:1042C0000020F03B009003F1500210210A2000F082
:1042D0001DFE206010B105A100F092FCBDE8384041
:1042E00000F00CBC98000020D40B0020546D7251DB
:1042F0000000000030B4026C0B46002A0BD0C168ED
:104300001144C1608468A14201D30168C16030BC1E
:104310001846FCF713B930BC70472DE9F041856BA6
:10432000174604460026026C82B1C7B1E068FCF76C
:1043300005F9E168206C091AE1602268914202D215
:10434000A168081AE060022F16D017E02068A8B90B
:10435000A06801F009F906460020A0600EE0606840
:10436000FCF7ECF8216C606808446060A168884242
:1043700004D32068606001E005B16D1E6D1CA5636B
:104380003046BDE8F08110B5044690F8590058B1A8
:1043900001280CD002280FD0502080F31188BFF3E1
:1043A0004F8FBFF36F8FFEE7206B00F0BBFB204603
:1043B000BDE8104000F0B6BB10BD000010484FF43F
:1043C0004061420706D0C01D0D4920F00700411A88
:1043D000C1F540610B4A00230144C2E900030839DA
:1043E000183A21F0070111604B600B600B1AC0E90D
:1043F000001393604FF0004053605061704700001D
:10440000B4120020C8000020144E154CA6F29C47A0
:104410004FF08058DFF84C9012E000BF00F04EFBE8
:10442000F068C568281D00F0EDFAA068401EA06085
:104430006068401E606000F061FB2846FFF7A3FF44
:1044400060680028EAD138680128F9D9C9F80080E5
:10445000BFF34F8FBFF36F8FF2E70000BC0A00205D
:104460005C00002004ED00E070B51D46049C51B1D5
:10447000C4F80020C4E90F010121204600F07AFDB4
:1044800084F84C5070BD2460F4E700002DE9F05F23
:104490008846DDE90B941546834691009A460A9EAC
:1044A000A522206BFCF7C1F86FF00301206B01EB34
:1044B0008501084420F00707780707D0502080F3D3
:1044C0001188BFF34F8FBFF36F8FFEE70025B8F160
:1044D000000F0FD05FF00000221818F8001082F8CB
:1044E000341018F8001011B1401C1028F4D384F8CF
:1044F000435001E084F83450382E00D33726E6626A
:10450000C4E91365201D00F0B2FA04F1180000F0B0
:10451000AEFA2461C6F138006462A061656584F872
:10452000585052465946384600F05AFA2060B9F1C0
:10453000000F01D0C9F80040BDE8F09F30B5114927
:1045400000E011460A688242FBD34B685C18844243
:1045500003D1406818444860084643681C189442D8
:1045600009D1084C183C2468A24209D052681A4468
:1045700042600A6812680260814200D0086030BD63
:104580000460F9E7C800002070B5002441600B4DBD
:104590000061914206D8D11A8269914206D2011D6A
:1045A000286907E09A4203D2994201D3012403E02B
:1045B000011DE86800F05EFA204670BD98000020FA
:1045C00010B5044600F07AFAA06B28B15FF0000441
:1045D00000F094FA204610BD0124F9E730B589B007
:1045E0003C4D6EE00498002806DADDE90601059AE4
:1045F00090470498002864DB069C606910B1201D78
:1046000000F000FA03A800F0D7F8024604980A2840
:1046100057D2DFE800F00505052D334A05052D3397
:1046200094F8280040F0010084F828000599A0695A
:10463000059B01442046FFF7A7FF68B3216A204687
:10464000884794F8280040073BD500200090059843
:10465000A169002342181946204601F08FF8D8B905
:10466000502080F31188BFF34F8FBFF36F8FFEE7A9
:1046700014F8280F20F00100207022E094F82800A0
:1046800040F0010084F828000598A06128B1811845
:1046900013462046FFF778FF13E0502080F311887F
:1046A000BFF34F8FBFF36F8FFEE794F828008107A9
:1046B00003D4204600F036FA03E020F0010084F82D
:1046C0002800002204A9286800F0A8FD002889D14C
:1046D00009B030BD980000202DE9FC410F46054689
:1046E00000F070FB01A800F067F80446019818B1CB
:1046F00000F0B2FFBDE8FC81254EAFB13069006823
:10470000D0B30027291B3A46306800F08DFA00F03C
:10471000A3FF0028EED11F494FF080500860BFF37F
:104720004F8FBFF36F8FE5E7A542EBD800F094FF02
:10473000F0682746C068C468201D00F063F994F84B
:104740002800410719D5A0692B4641193A46204651
:10475000FFF71AFFA8B100200346014600902A4641
:10476000204601F00BF860B9502080F31188BFF3A8
:104770004F8FBFF36F8FFEE707E020F0010084F852
:104780002800216A20468847B4E70127BAE70000DD
:104790009800002004ED00E00648416B096829B14B
:1047A000416BC968C9684968816270474FF0FF3141
:1047B000FAE700005C00002070B5054600F06AFED4
:1047C000064E0446B068844203D200F009F8012086
:1047D00000E0002028602046B46070BD98000020F2
:1047E000F8B5194D20E0C068C4680668201D00F0C7
:1047F00009F9216A2046884794F82800400713D514
:10480000A0693044B04206D924616060211DE86887
:1048100000F030F908E000200346014600903246DF
:10482000204600F0ABFF38B1E86801680029DAD112
:104830002969C5E90310F8BD502080F31188BFF342
:104840004F8FBFF36F8FFEE7980000200848406845
:10485000401C4FF0500080F3118804D0BFF34F8FFD
:10486000BFF36F8FFEE7BFF34F8FBFF36F8FFEE78E
:10487000D0000020074CE068016841B1C068002109
:10488000D0F80000FFF728FFFFF7A8FEF3E70121AB
:104890000020F7E7980000202DE9F041044600F0E1
:1048A0000DF994F9455004F1240609E0606A48B115
:1048B000304600F099FE08B100F006FA6D1E6DB2A8
:1048C000002DF3DC4FF0FF3684F8456000F016F958
:1048D00000F0F4F894F9445004F1100709E020695D
:1048E00048B1384600F080FE08B100F0EDF96D1EC9
:1048F0006DB2002DF3DC84F84460BDE8F04100F0B7
:10490000FDB800002DE9F0410546002700F05AFAF5
:10491000324E306808B9FFF751FD706905424ED13B
:10492000C5B3083568070ED005F00700C0F10800D0
:104930000544680707D0502080F31188BFF34F8FDC
:10494000BFF36F8FFEE72DB37068854237D82348D9
:10495000183001460C6801E020460C466168A94207
:1049600002D221680029F7D131688C4227D007682C
:104970002168016060680837411B10290FD9601950
:10498000420708D0502080F31188BFF34F8FBFF348
:104990006F8FFEE713E041606560FFF7CFFD616850
:1049A0007068401A7060B268904200D2B06070695E
:1049B00001430020C4E90001F068401CF06000F0F1
:1049C0004BFE780707D0502080F31188BFF34F8F3C
:1049D000BFF36F8FFEE73846BDE8F081B0000020DE
:1049E00010B5031F4FF080741C601B1F21F00101E4
:1049F0001960191F024B0B60143940380A6010BD52
:104A00004D480008D0E9013201699A60D0E90123DC
:104A10005A604A68824201D182684A60002202617B
:104A20000868401E0860086870470000034B036078
:104A300003F15C000860802010607047FC0B0020D0
:104A4000044B036003F15C0008604FF48070106059
:104A500070470000580E002000F108014FF0FF32AF
:104A6000C0E90112C16001610021016070470021AD
:104A70000161704730B50B685A1C02D000F1080282
:104A800002E0026904E02246546825689D42FAD992
:104A900053684B6099608A60516008610168491CE5
:104AA000016030BD42684A6093688B6093685960CA
:104AB000916008610168491C01607047502080F3D3
:104AC0001188BFF34F8FBFF36F8F0A494868401CAE
:104AD000486001280CD10848006810F0FF0F07D08B
:104AE000502080F31188BFF34F8FBFF36F8FFEE725
:104AF00070470000D000002004ED00E0084948683D
:104B000028B1401E486001D180F3118870475020C1
:104B100080F31188BFF34F8FBFF36F8FFEE7000064
:104B2000D000002070B500282AD0164DA0F108044E
:104B300060686969084207D1502080F31188BFF38B
:104B40004F8FBFF36F8FFEE722683AB1502080F39A
:104B50001188BFF34F8FBFF36F8FFEE7884360600C
:104B600000F030F960686968084468602046FFF723
:104B7000E5FC2869401C2861BDE8704000F06CBD70
:104B800070BD0000B00000204FF0E0200021016166
:104B9000816105494FF47A720968B1FBF2F1491E4F
:104BA00041610721016170475800002010B5FBF7F3
:104BB0003BFB114910280ED300F1E02090F8F003E0
:104BC0000A78904207D2502080F31188BFF34F8FAC
:104BD000BFF36F8FFEE709480068896800F4E06062
:104BE000884207D9502080F31188BFF34F8FBFF35D
:104BF0006F8FFEE710BD0000D00000200CED00E03C
:104C000010B5084B002200BF53F832401CB1521CB3
:104C1000082AF9D310BD43F8321003EBC2014860F3
:104C200010BD0000E005002070B515460E46044694
:104C3000FFF744FF94F944100020491C01D184F887
:104C4000440094F94510491C01D184F84500FFF750
:104C500055FFA06B28B92A46314604F1240000F024
:104C600051F82046BDE87040FFF716BE10B50200AF
:104C700014D00F48006B38B1502080F31188BFF377
:104C80004F8FBFF36F8FFEE700F09CF800211046B6
:104C9000FFF76EFA00F0E0FC002807D105494FF05D
:104CA00080500860BFF34F8FBFF36F8F10BD0000BF
:104CB0005C00002004ED00E002490A6A0260C96855
:104CC000416070475C00002001490120C8617047C5
:104CD0005C00002010B50C4650B109490968183134
:104CE000FFF7C8FE2046BDE810400121FFF740BA9B
:104CF000502080F31188BFF34F8FBFF36F8FFEE713
:104D00005C00002070B514460D4668B10A49096878
:104D10001831FFF7C7FE0CB14FF0FF35214628468A
:104D2000BDE87040FFF724BA502080F31188BFF32C
:104D30004F8FBFF36F8FFEE75C00002030B587B068
:104D40000024039405AA04A903A80494FFF76EFEA7
:104D5000DDE903010094CDE90110002315A11748F6
:104D6000059A00F05EFB164D0028E8621FD000F0A7
:104D7000D5FC012809D0401C19D1502080F311889E
:104D8000BFF34F8FBFF36F8FFEE7502080F3118882
:104D9000BFF34F8FBFF36F8F4FF0FF30A86201203A
:104DA0006861EC6007B0BDE8304000F045B807B07E
:104DB00030BD000049444C45000000000944000893
:104DC0005C0000200248016B491C01637047000031
:104DD0005C000020164810B5016B11B10121C161C2
:104DE00010BD0021C1610169124A01E0B9B1491E3B
:104DF00001EB810352F82330002BF7D001EB810344
:104E000002EB830202F1080453685B685360A3421B
:104E100001D15B685360DA680260016110BD502007
:104E200080F31188BFF34F8FBFF36F8FFEE7000051
:104E30005C000020200600201CB52649087801905F
:104E4000FF20087008788DF800009DF800009DF89C
:104E5000002000F0F000904207D0502080F311882D
:104E6000BFF34F8FBFF36F8FFEE79DF800001A4C22
:104E700000F0500020700720A06005E09DF80020A1
:104E800052008DF80020401E9DF800201206F5D437
:104E9000A060032807D0502080F31188BFF34F8F04
:104EA000BFF36F8FFEE74FF44070A0600198087069
:104EB0000A48016841F470010160016841F07041E5
:104EC0000160FFF761FE00206060FBF777F90020CA
:104ED0001CBD000000E400E0D000002020ED00E058
:104EE00010B5502080F31188BFF34F8FBFF36F8F41
:104EF00000F0D6FA18B104494FF080500860002045
:104F000080F3118810BD000004ED00E038B5049D69
:104F100018B153B1CAB181B120E0502080F311889B
:104F2000BFF34F8FBFF36F8FFEE7502080F31188E0
:104F3000BFF34F8FBFF36F8FFEE7502080F31188D0
:104F4000BFF34F8FBFF36F8FFEE739B1502080F36F
:104F50001188BFF34F8FBFF36F8FFEE750241C46BD
:104F6000012384F846302B460094FFF77DFA204653
:104F700038BD000070B50D46040025D0FFF79EFD3A
:104F8000D4E90F20216802FB0011A1600021A16378
:104F9000216861600A46D4E90F01401E00FB01212F
:104FA000E16021464FF0FF3001F8440F487004F1F2
:104FB00010008DB1FFF750FD04F12400FFF74CFD08
:104FC000FFF79CFD012070BD502080F31188BFF3D6
:104FD0004F8FBFF36F8FFEE721690029F0D000F0FB
:104FE00003FB0028ECD004494FF080500860BFF369
:104FF0004F8FBFF36F8FE3E704ED00E02DE9FF472C
:1050000082B01D468A464FF00008040003D0BAF172
:10501000000F08D011E0502080F31188BFF34F8FAC
:10502000BFF36F8FFEE7206C38B1502080F31188FA
:10503000BFF34F8FBFF36F8FFEE7022D0AD1E06BF6
:10504000012807D0502080F31188BFF34F8FBFF3A2
:105050006F8FFEE700F010FA3F4F4FF000094FF05E
:10506000805648B9049838B1502080F31188BFF3B6
:105070004F8FBFF36F8FFEE7FFF720FDA06BE16B53
:10508000884207D3022D05D00498D0B1B8F1000FA3
:105090001AD01EE02A4651462046FFF73EF9616AC3
:1050A00019B104F1240000F09FFA20B13E60BFF373
:1050B0004F8FBFF36F8FFFF721FD012006B0BDE8D2
:1050C000F087FFF71BFD22E06846FFF7F5FD4FF084
:1050D0000108FFF713FDFFF775FEFFF7EFFC94F9EA
:1050E0004400401C01D184F8449094F94500401CD0
:1050F00001D184F84590FFF701FD04A9684600F04E
:1051000029F930B12046FFF7C7FB00F0A5FA0020CF
:10511000D4E7FFF7D3FCA06BE16B884213D1FFF714
:10512000EDFC04F110000499FFF7D4FD2046FFF7D1
:10513000B3FB00F091FA00289ED13E60BFF34F8F81
:10514000BFF36F8F98E7FFF7D9FC2046FFF7A4FB6A
:1051500000F082FA90E7000004ED00E02DE9F0474E
:105160001F4690468946040003D0B9F1000F08D0CD
:1051700011E0502080F31188BFF34F8FBFF36F8F82
:10518000FEE7206C38B1502080F31188BFF34F8FB9
:10519000BFF36F8FFEE7022F0AD1E06B012807D023
:1051A000502080F31188BFF34F8FBFF36F8FFEE75E
:1051B000FFF7FCFC5020EFF3118680F31188BFF35A
:1051C0004F8FBFF36F8FA06BE16B884206D3022F26
:1051D00004D0002086F31188BDE8F08794F945508B
:1051E000A06B3A4649462046FFF797F8681C04D062
:1051F0006D1C84F845500120ECE7606A0028FAD065
:1052000004F1240000F0F0F90028F4D0B8F1000F08
:10521000F1D00121C8F80010EDE700002DE9F747B3
:10522000002683B08A46040003D0BAF1000F08D0EC
:1052300011E0502080F31188BFF34F8FBFF36F8FC1
:10524000FEE7206C38B1502080F31188BFF34F8FF8
:10525000BFF36F8FFEE700F00FF9DFF8F4804FF037
:1052600000094FF0805748B9059838B1502080F3B5
:105270001188BFF34F8FBFF36F8FFEE7FFF71EFC60
:10528000A56BC5B151462046FFF734F86D1EA563E6
:10529000206950B104F1100000F0A6F928B1C8F857
:1052A0000070BFF34F8FBFF36F8FFFF727FC012014
:1052B00006B0BDE8F087059808B11EB106E0FFF71B
:1052C0001DFC27E06846FFF7F7FC0126FFF716FCF8
:1052D000FFF778FDFFF7F2FB94F94400401C01D181
:1052E00084F8449094F94500401C01D184F845901D
:1052F000FFF704FC05A9684600F02CF800282046BA
:105300000AD0FFF7C9FA00F0A7F92046FFF758F9CD
:105310000028B3D00020CBE7FFF752F990B104F199
:1053200024000599FFF7D6FC2046FFF7B5FA00F0F8
:1053300093F90028A2D1C8F80070BFF34F8FBFF3D4
:105340006F8F9BE72046FFF7A7FA00F085F995E7F6
:1053500004ED00E02DE9F0410C46050011D0C4B188
:10536000FFF7ACFB174BDA686E682068911B471C8F
:1053700017D02F681B6A9F4219D0964217D8012474
:1053800010E0502080F31188BFF34F8FBFF36F8F71
:10539000FEE7502080F31188BFF34F8FBFF36F8F6C
:1053A000FEE70024FFF7AAFB2046BDE8F081884213
:1053B00005D9401A20602846FFF77EFCF1E700205F
:1053C0002060DCE75C0000202DE9FF5F8346DDE91B
:1053D0000E87994616468A469000FFF793FA050015
:1053E0001CD05C20FFF78EFA040014D00020256347
:1053F00084F85900CDE90240CDE900874B4632469A
:1054000051465846FFF742F82046FEF7DFFE0120DE
:1054100004B0BDE8F09F2846FFF784FB4FF0FF3053
:10542000F6E7F0B585B0DDE90B640A9DA6B1DCB105
:105430005C2700972663022684F85960002604AF93
:10544000CDE90246CDE90057FFF720F82046FEF7E8
:10545000BDFE049805B0F0BD502080F31188BFF365
:105460004F8FBFF36F8FFEE7502080F31188BFF39B
:105470004F8FBFF36F8FFEE70548416919B1006B8D
:1054800018B10020704701207047022070470000CB
:105490005C0000200148C068704700005C000020EC
:1054A0002DE9F0412E4C0027206B28B1A069401C4B
:1054B000A0613846BDE8F081E668761CE66013D14D
:1054C000606B006838B1502080F31188BFF34F8FB4
:1054D000BFF36F8FFEE7606BA16B6163A063206A0F
:1054E000401C2062FFF758F9A06ADFF878808642F6
:1054F00009D3606B0068A0B1606BC068C56868685C
:10550000864211D2A0622068C06A00EB800158F880
:105510002100012800D90127E0690028C9D001270E
:10552000C7E74FF0FF30EDE7281DFFF76BFAA86AD9
:1055300018B105F11800FFF765FAE86A2169884299
:1055400000D9206100EB800108EB8100291DFFF7E5
:10555000A9FAE86A2168C96A8842CAD30127C8E75C
:105560005C0000202006002070B504004FF0000110
:1055700033D01B4D2868844207D0502080F3118817
:10558000BFF34F8FBFF36F8FFEE7206D38B1401E22
:105590002065E36CE26A9A421FD040B11DE05020C2
:1055A00080F31188BFF34F8FBFF36F8FFEE7201D8D
:1055B000FFF728FAE06CE062C0F13800A061E06A11
:1055C0002969884200D92861064900EB800001EB77
:1055D0008000211DFFF766FA0121084670BD00001A
:1055E0005C0000202006002070B5C068C46854B17B
:1055F00004F118000646FFF705FA144D286B50B168
:105600003146134815E0502080F31188BFF34F8FC7
:10561000BFF36F8FFEE7201DFFF7F4F9E06A2969F9
:10562000884200D928610B4900EB800001EB800023
:10563000211DFFF737FAE06A2968C96A884202D952
:105640000120E86170BD002070BD00005C000020FA
:10565000A80A0020200600202DE9F0472C4D002448
:105660002746286B38B1FFF729FA286B401E2863BC
:10567000286B40B146E0502080F31188BFF34F8F74
:10568000BFF36F8FFEE7A968224E0120D1B3A6F5C4
:10569000916980463068E0B1F068C46804F1180090
:1056A000FFF7B0F9201DFFF7ADF9E06A29698842DC
:1056B00000D9286100EB800109EB8100211DFFF773
:1056C000F1F9E06A2968C96A8842E3D3C5F81C8009
:1056D000E0E70CB1FFF760F8AC694CB14FEA08069F
:1056E000FFF7DEFE00B1EE61641EF9D10020A86173
:1056F000E86938B10849012738070860BFF34F8FC0
:10570000BFF36F8FFFF7FAF93846BDE8F087000066
:105710005C000020A80A002004ED00E010B586B06F
:10572000FEF7BCFD114C2068B8B100200390049036
:1057300005AA04A903A8FFF783F9DDE903210220E4
:105740008DE8070000230AA10B48059AFFF769FEC0
:10575000606010B106B0012010BD502080F31188A8
:10576000BFF34F8FBFF36F8FFEE70000980000205C
:10577000546D722053766300754800082DE9FF418F
:105780001E46134602000A9D4FF0000016D0144C2E
:105790002768002F0FD0CDE900130292062917DAEF
:1057A000FFF76AFE02284FF000030FD0002269467F
:1057B0002068FFF723FC04B0BDE8F081502080F39F
:1057C0001188BFF34F8FBFF36F8FFEE72A46EEE7D6
:1057D0000023324669463846FFF7C0FCEBE700007D
:1057E0009800002090EA010F48BF81F0004100F1CD
:1057F0003482421A3CBF801A89184FEAD0524FF0C7
:105800007F4C1CEA410FA2EBD15318BF9CEA026FF8
:1058100000F03B804FF0004C4CEA00204CEA0121A4
:1058200021FA03FC10EB0C0C1ED202F1FF325FEAEE
:105830001C2040EBC25038BF70471CF07F0F4FEA6E
:10584000400C18BFBCF17F4F38BF7047C3F1200335
:10585000994008BF20F00100BCF17F4F38BF70476E
:10586000A0F1C04000F0E3B94FEA3C00000A40EB71
:10587000C25028BF1CF0FF0F4FEA400CE6D018BF03
:10588000BCF17F4F38BF7047EAE79CEA026F05D052
:1058900010EA5C0F08BF00F00040704710B500F040
:1058A00080F900BF64FBBE3E014800F044BA00BF6F
:1058B0000000C07F4FF47F0C1CEAD0121EBF1CEA10
:1058C000D11392EA0C0F93EA0C0F00F0858090EA56
:1058D000010F48BF42F4807240F4000C41F4000014
:1058E0002CF07F4120F07F4000B58142A2EB030203
:1058F0000FF2081CACEB504EC0F100009EF800E027
:105900004FEA4E0E00FB0EFC38BF49004FEA2C1C3C
:1059100002F5FA020CFB0EF34FEACE1E4FEA112CF1
:105920004FEAC1210EEB635E42EB22420EFB0CFC00
:105930004FEA1C5300FB03114FEA112C4FEA0131CF
:105940000EFB0CFC4FEADC4C00FB0C11C14228BFE3
:1059500009184CEB03335DF804EB10EB410143EB0A
:10596000C250B2F57C0F38BF704729D512F0F00F46
:105970001CBF00F1C04000F00040704700818283EE
:105980008485868788898B8C8D8E8F91929395964E
:1059900097999A9C9D9FA0A2A3A5A7A8AAACAEB0D8
:1059A000B2B3B5B7B9BCBEC0C2C5C7C9CCCED1D4DD
:1059B000D7D9DCDFE2E6E9ECF0F3F7FAFE0000000D
:1059C0004FEA400C0CF1807CBCF17E4F28BF704741
:1059D000B0F1C04000F02BB990EA010F0CEAD113EE
:1059E00048BF42F48072624538BF634507D213F462
:1059F0007F0F16D080EA010000F00040704710B51C
:105A000000F0CFF8097EFC3E00F005B880EA010006
:105A100000F00040704780EA010000F0004000F014
:105A200006B912F47F0F04BF0248704780EA0100F4
:105A300000F0FDB80000C07F41000B0ED3F19E02C4
:105A400008D950F400034FEA032323FA02F048BFB9
:105A50004042704710B500F0A4F800BF499224807E
:105A6000002070476FF0004282EA2000704700007B
:105A700010F0004148BF4042B0FA80F310FA03F240
:105A8000C3F19D030BD051EAC35101EB1220530621
:105A900038BF704700F1010008BF20F001007047D7
:105AA0004FF47F0C1CEAD0121EBF1CEAD11392EAFD
:105AB0000C0F93EA0C0F00F0478090EA010F48BFEB
:105AC00042F480724FF0004C4CEA00204CEA012175
:105AD00002EB0302A0FB0113A2F50002002918BF8C
